{
  "contractName": "VotingFactory",
  "abi": [
    {
      "anonymous": false,
      "inputs": [
        {
          "indexed": false,
          "internalType": "string",
          "name": "_title",
          "type": "string"
        },
        {
          "indexed": false,
          "internalType": "address",
          "name": "_contract",
          "type": "address"
        }
      ],
      "name": "VotingCreated",
      "type": "event"
    },
    {
      "constant": true,
      "inputs": [
        {
          "internalType": "uint256",
          "name": "",
          "type": "uint256"
        }
      ],
      "name": "allVotings",
      "outputs": [
        {
          "internalType": "address",
          "name": "creator",
          "type": "address"
        },
        {
          "internalType": "address",
          "name": "instance",
          "type": "address"
        },
        {
          "internalType": "string",
          "name": "name",
          "type": "string"
        },
        {
          "internalType": "string",
          "name": "description",
          "type": "string"
        },
        {
          "internalType": "uint256",
          "name": "timestamp",
          "type": "uint256"
        },
        {
          "internalType": "bool",
          "name": "instanceExists",
          "type": "bool"
        },
        {
          "internalType": "uint256",
          "name": "start",
          "type": "uint256"
        },
        {
          "internalType": "uint256",
          "name": "end",
          "type": "uint256"
        }
      ],
      "payable": false,
      "stateMutability": "view",
      "type": "function"
    },
    {
      "constant": true,
      "inputs": [],
      "name": "contractsCreated",
      "outputs": [
        {
          "internalType": "uint256",
          "name": "",
          "type": "uint256"
        }
      ],
      "payable": false,
      "stateMutability": "view",
      "type": "function"
    },
    {
      "constant": true,
      "inputs": [
        {
          "internalType": "address",
          "name": "",
          "type": "address"
        },
        {
          "internalType": "bytes32",
          "name": "",
          "type": "bytes32"
        }
      ],
      "name": "votingContracts",
      "outputs": [
        {
          "internalType": "address",
          "name": "creator",
          "type": "address"
        },
        {
          "internalType": "address",
          "name": "instance",
          "type": "address"
        },
        {
          "internalType": "string",
          "name": "name",
          "type": "string"
        },
        {
          "internalType": "string",
          "name": "description",
          "type": "string"
        },
        {
          "internalType": "uint256",
          "name": "timestamp",
          "type": "uint256"
        },
        {
          "internalType": "bool",
          "name": "instanceExists",
          "type": "bool"
        },
        {
          "internalType": "uint256",
          "name": "start",
          "type": "uint256"
        },
        {
          "internalType": "uint256",
          "name": "end",
          "type": "uint256"
        }
      ],
      "payable": false,
      "stateMutability": "view",
      "type": "function"
    },
    {
      "constant": false,
      "inputs": [
        {
          "internalType": "string",
          "name": "_name",
          "type": "string"
        },
        {
          "internalType": "string",
          "name": "_description",
          "type": "string"
        },
        {
          "internalType": "bytes32[]",
          "name": "proposalNames",
          "type": "bytes32[]"
        },
        {
          "internalType": "uint256",
          "name": "_startDate",
          "type": "uint256"
        },
        {
          "internalType": "uint256",
          "name": "_endDate",
          "type": "uint256"
        }
      ],
      "name": "newVotingInstance",
      "outputs": [
        {
          "internalType": "address",
          "name": "",
          "type": "address"
        }
      ],
      "payable": false,
      "stateMutability": "nonpayable",
      "type": "function"
    }
  ],
  "bytecode": "0x608060405234801561001057600080fd5b50611d8a806100206000396000f3fe608060405234801561001057600080fd5b506004361061004c5760003560e01c806309a59d8a1461005157806334524fca1461006f5780634704b529146102085780637e47fdcd14610442575b600080fd5b6100596105fb565b6040518082815260200191505060405180910390f35b61009b6004803603602081101561008557600080fd5b8101908080359060200190929190505050610601565b604051808973ffffffffffffffffffffffffffffffffffffffff1673ffffffffffffffffffffffffffffffffffffffff1681526020018873ffffffffffffffffffffffffffffffffffffffff1673ffffffffffffffffffffffffffffffffffffffff168152602001806020018060200187815260200186151515158152602001858152602001848152602001838103835289818151815260200191508051906020019080838360005b8381101561015f578082015181840152602081019050610144565b50505050905090810190601f16801561018c5780820380516001836020036101000a031916815260200191505b50838103825288818151815260200191508051906020019080838360005b838110156101c55780820151818401526020810190506101aa565b50505050905090810190601f1680156101f25780820380516001836020036101000a031916815260200191505b509a505050505050505050505060405180910390f35b610400600480360360a081101561021e57600080fd5b810190808035906020019064010000000081111561023b57600080fd5b82018360208201111561024d57600080fd5b8035906020019184600183028401116401000000008311171561026f57600080fd5b91908080601f016020809104026020016040519081016040528093929190818152602001838380828437600081840152601f19601f820116905080830192505050505050509192919290803590602001906401000000008111156102d257600080fd5b8201836020820111156102e457600080fd5b8035906020019184600183028401116401000000008311171561030657600080fd5b91908080601f016020809104026020016040519081016040528093929190818152602001838380828437600081840152601f19601f8201169050808301925050505050505091929192908035906020019064010000000081111561036957600080fd5b82018360208201111561037b57600080fd5b8035906020019184602083028401116401000000008311171561039d57600080fd5b919080806020026020016040519081016040528093929190818152602001838360200280828437600081840152601f19601f82011690508083019250505050505050919291929080359060200190929190803590602001909291905050506107d3565b604051808273ffffffffffffffffffffffffffffffffffffffff1673ffffffffffffffffffffffffffffffffffffffff16815260200191505060405180910390f35b61048e6004803603604081101561045857600080fd5b81019080803573ffffffffffffffffffffffffffffffffffffffff16906020019092919080359060200190929190505050610e47565b604051808973ffffffffffffffffffffffffffffffffffffffff1673ffffffffffffffffffffffffffffffffffffffff1681526020018873ffffffffffffffffffffffffffffffffffffffff1673ffffffffffffffffffffffffffffffffffffffff168152602001806020018060200187815260200186151515158152602001858152602001848152602001838103835289818151815260200191508051906020019080838360005b83811015610552578082015181840152602081019050610537565b50505050905090810190601f16801561057f5780820380516001836020036101000a031916815260200191505b50838103825288818151815260200191508051906020019080838360005b838110156105b857808201518184015260208101905061059d565b50505050905090810190601f1680156105e55780820380516001836020036101000a031916815260200191505b509a505050505050505050505060405180910390f35b60025481565b6001818154811061060e57fe5b90600052602060002090600802016000915090508060000160009054906101000a900473ffffffffffffffffffffffffffffffffffffffff16908060010160009054906101000a900473ffffffffffffffffffffffffffffffffffffffff1690806002018054600181600116156101000203166002900480601f0160208091040260200160405190810160405280929190818152602001828054600181600116156101000203166002900480156107065780601f106106db57610100808354040283529160200191610706565b820191906000526020600020905b8154815290600101906020018083116106e957829003601f168201915b505050505090806003018054600181600116156101000203166002900480601f0160208091040260200160405190810160405280929190818152602001828054600181600116156101000203166002900480156107a45780601f10610779576101008083540402835291602001916107a4565b820191906000526020600020905b81548152906001019060200180831161078757829003601f168201915b5050505050908060040154908060050160009054906101000a900460ff16908060060154908060070154905088565b60006002845111610827576040517f08c379a0000000000000000000000000000000000000000000000000000000008152600401808060200182810382526000815260200160200191505060405180910390fd5b60003387604051602001808373ffffffffffffffffffffffffffffffffffffffff1673ffffffffffffffffffffffffffffffffffffffff1660601b815260140182805190602001908083835b602083106108965780518252602082019150602081019050602083039250610873565b6001836020036101000a03801982511681845116808217855250505050505090500192505050604051602081830303815290604052805190602001209050600015156000803373ffffffffffffffffffffffffffffffffffffffff1673ffffffffffffffffffffffffffffffffffffffff168152602001908152602001600020600083815260200190815260200160002060050160009054906101000a900460ff16151514610990576040517f08c379a0000000000000000000000000000000000000000000000000000000008152600401808060200182810382526028815260200180611d2e6028913960400191505060405180910390fd5b6000338686866040516109a290611019565b808573ffffffffffffffffffffffffffffffffffffffff1673ffffffffffffffffffffffffffffffffffffffff16815260200180602001848152602001838152602001828103825285818151815260200191508051906020019060200280838360005b83811015610a20578082015181840152602081019050610a05565b5050505090500195505050505050604051809103906000f080158015610a4a573d6000803e3d6000fd5b5090506000819050610a5a611026565b6040518061010001604052803373ffffffffffffffffffffffffffffffffffffffff1681526020018373ffffffffffffffffffffffffffffffffffffffff1681526020018b81526020018a81526020014281526020016001151581526020018881526020018781525090506001819080600181540180825580915050906001820390600052602060002090600802016000909192909190915060008201518160000160006101000a81548173ffffffffffffffffffffffffffffffffffffffff021916908373ffffffffffffffffffffffffffffffffffffffff16021790555060208201518160010160006101000a81548173ffffffffffffffffffffffffffffffffffffffff021916908373ffffffffffffffffffffffffffffffffffffffff1602179055506040820151816002019080519060200190610b9d929190611099565b506060820151816003019080519060200190610bba929190611099565b506080820151816004015560a08201518160050160006101000a81548160ff02191690831515021790555060c0820151816006015560e08201518160070155505050806000803373ffffffffffffffffffffffffffffffffffffffff1673ffffffffffffffffffffffffffffffffffffffff168152602001908152602001600020600086815260200190815260200160002060008201518160000160006101000a81548173ffffffffffffffffffffffffffffffffffffffff021916908373ffffffffffffffffffffffffffffffffffffffff16021790555060208201518160010160006101000a81548173ffffffffffffffffffffffffffffffffffffffff021916908373ffffffffffffffffffffffffffffffffffffffff1602179055506040820151816002019080519060200190610cf6929190611099565b506060820151816003019080519060200190610d13929190611099565b506080820151816004015560a08201518160050160006101000a81548160ff02191690831515021790555060c0820151816006015560e082015181600701559050506002600081548092919060010191905055507f545c730f1bf784ce0855d9fe00390a6796db5b5eb2924ef8f8d89ef16b78ff7e8a8360405180806020018373ffffffffffffffffffffffffffffffffffffffff1673ffffffffffffffffffffffffffffffffffffffff168152602001828103825284818151815260200191508051906020019080838360005b83811015610dfc578082015181840152602081019050610de1565b50505050905090810190601f168015610e295780820380516001836020036101000a031916815260200191505b50935050505060405180910390a18194505050505095945050505050565b6000602052816000526040600020602052806000526040600020600091509150508060000160009054906101000a900473ffffffffffffffffffffffffffffffffffffffff16908060010160009054906101000a900473ffffffffffffffffffffffffffffffffffffffff1690806002018054600181600116156101000203166002900480601f016020809104026020016040519081016040528092919081815260200182805460018160011615610100020316600290048015610f4c5780601f10610f2157610100808354040283529160200191610f4c565b820191906000526020600020905b815481529060010190602001808311610f2f57829003601f168201915b505050505090806003018054600181600116156101000203166002900480601f016020809104026020016040519081016040528092919081815260200182805460018160011615610100020316600290048015610fea5780601f10610fbf57610100808354040283529160200191610fea565b820191906000526020600020905b815481529060010190602001808311610fcd57829003601f168201915b5050505050908060040154908060050160009054906101000a900460ff16908060060154908060070154905088565b610bef8061113f83390190565b604051806101000160405280600073ffffffffffffffffffffffffffffffffffffffff168152602001600073ffffffffffffffffffffffffffffffffffffffff16815260200160608152602001606081526020016000815260200160001515815260200160008152602001600081525090565b828054600181600116156101000203166002900490600052602060002090601f016020900481019282601f106110da57805160ff1916838001178555611108565b82800160010185558215611108579182015b828111156111075782518255916020019190600101906110ec565b5b5090506111159190611119565b5090565b61113b91905b8082111561113757600081600090555060010161111f565b5090565b9056fe608060405234801561001057600080fd5b50604051610bef380380610bef8339818101604052608081101561003357600080fd5b81019080805190602001909291908051604051939291908464010000000082111561005d57600080fd5b8382019150602082018581111561007357600080fd5b825186602082028301116401000000008211171561009057600080fd5b8083526020830192505050908051906020019060200280838360005b838110156100c75780820151818401526020810190506100ac565b50505050905001604052602001805190602001909291908051906020019092919050505083600360006101000a81548173ffffffffffffffffffffffffffffffffffffffff021916908373ffffffffffffffffffffffffffffffffffffffff160217905550600160046000600360009054906101000a900473ffffffffffffffffffffffffffffffffffffffff1673ffffffffffffffffffffffffffffffffffffffff1673ffffffffffffffffffffffffffffffffffffffff16815260200190815260200160002060000181905550816001819055508060028190555060008090505b835181101561022d57600560405180604001604052808684815181106101cc57fe5b60200260200101518152602001600081525090806001815401808255809150509060018203906000526020600020906002020160009091929091909150600082015181600001556020820151816001015550505080806001019150506101aa565b50505050506109ae806102416000396000f3fe608060405234801561001057600080fd5b506004361061009e5760003560e01c8063609ff1bd11610066578063609ff1bd146102055780639e7b8d6114610223578063a3ec138d14610267578063c24a0f8b146102d1578063e2ba53f0146102ef5761009e565b80630121b93f146100a3578063013cf08b146100d157806306fdde031461011a5780630b97bc861461019d5780632e4176cf146101bb575b600080fd5b6100cf600480360360208110156100b957600080fd5b810190808035906020019092919050505061030d565b005b6100fd600480360360208110156100e757600080fd5b8101908080359060200190929190505050610509565b604051808381526020018281526020019250505060405180910390f35b61012261053a565b6040518080602001828103825283818151815260200191508051906020019080838360005b83811015610162578082015181840152602081019050610147565b50505050905090810190601f16801561018f5780820380516001836020036101000a031916815260200191505b509250505060405180910390f35b6101a56105d8565b6040518082815260200191505060405180910390f35b6101c36105de565b604051808273ffffffffffffffffffffffffffffffffffffffff1673ffffffffffffffffffffffffffffffffffffffff16815260200191505060405180910390f35b61020d610604565b6040518082815260200191505060405180910390f35b6102656004803603602081101561023957600080fd5b81019080803573ffffffffffffffffffffffffffffffffffffffff16906020019092919050505061067b565b005b6102a96004803603602081101561027d57600080fd5b81019080803573ffffffffffffffffffffffffffffffffffffffff1690602001909291905050506108e7565b6040518084815260200183151515158152602001828152602001935050505060405180910390f35b6102d961091e565b6040518082815260200191505060405180910390f35b6102f7610924565b6040518082815260200191505060405180910390f35b6000600460003373ffffffffffffffffffffffffffffffffffffffff1673ffffffffffffffffffffffffffffffffffffffff16815260200190815260200160002090506000816000015414156103cb576040517f08c379a00000000000000000000000000000000000000000000000000000000081526004018080602001828103825260148152602001807f486173206e6f20726967687420746f20766f746500000000000000000000000081525060200191505060405180910390fd5b8060010160009054906101000a900460ff1615610450576040517f08c379a000000000000000000000000000000000000000000000000000000000815260040180806020018281038252600e8152602001807f416c726561647920766f7465642e00000000000000000000000000000000000081525060200191505060405180910390fd5b42600154108015610462575060025442105b6104af576040517f08c379a0000000000000000000000000000000000000000000000000000000008152600401808060200182810382526000815260200160200191505060405180910390fd5b60018160010160006101000a81548160ff0219169083151502179055508181600201819055508060000154600583815481106104e757fe5b9060005260206000209060020201600101600082825401925050819055505050565b6005818154811061051657fe5b90600052602060002090600202016000915090508060000154908060010154905082565b60008054600181600116156101000203166002900480601f0160208091040260200160405190810160405280929190818152602001828054600181600116156101000203166002900480156105d05780601f106105a5576101008083540402835291602001916105d0565b820191906000526020600020905b8154815290600101906020018083116105b357829003601f168201915b505050505081565b60015481565b600360009054906101000a900473ffffffffffffffffffffffffffffffffffffffff1681565b6000806000905060008090505b60058054905081101561067657816005828154811061062c57fe5b9060005260206000209060020201600101541115610669576005818154811061065157fe5b90600052602060002090600202016001015491508092505b8080600101915050610611565b505090565b600360009054906101000a900473ffffffffffffffffffffffffffffffffffffffff1673ffffffffffffffffffffffffffffffffffffffff163373ffffffffffffffffffffffffffffffffffffffff1614610721576040517f08c379a00000000000000000000000000000000000000000000000000000000081526004018080602001828103825260288152602001806109526028913960400191505060405180910390fd5b600460008273ffffffffffffffffffffffffffffffffffffffff1673ffffffffffffffffffffffffffffffffffffffff16815260200190815260200160002060010160009054906101000a900460ff16156107e4576040517f08c379a00000000000000000000000000000000000000000000000000000000081526004018080602001828103825260188152602001807f54686520766f74657220616c726561647920766f7465642e000000000000000081525060200191505060405180910390fd5b6000600460008373ffffffffffffffffffffffffffffffffffffffff1673ffffffffffffffffffffffffffffffffffffffff168152602001908152602001600020600001541461089c576040517f08c379a000000000000000000000000000000000000000000000000000000000815260040180806020018281038252600a8152602001807f776569676874203e20300000000000000000000000000000000000000000000081525060200191505060405180910390fd5b6001600460008373ffffffffffffffffffffffffffffffffffffffff1673ffffffffffffffffffffffffffffffffffffffff1681526020019081526020016000206000018190555050565b60046020528060005260406000206000915090508060000154908060010160009054906101000a900460ff16908060020154905083565b60025481565b60006005610930610604565b8154811061093a57fe5b90600052602060002090600202016000015490509056fe4f6e6c79206368616972706572736f6e2063616e206769766520726967687420746f20766f74652ea265627a7a72315820ebaf949f2935b3aac737c17bec2308cfce1649b60d55745f9281b2f6bee1324664736f6c63430005100032546865726520697320616c7265616479206120566f74696e6720776974682074686973206e616d65a265627a7a723158206dfac15c78df522e43b00b3ba39163bdc74a2c4b7c288f8bc7fc8a11d592533b64736f6c63430005100032",
  "source": "pragma solidity >=0.4.21 <0.7.0;\n\nimport './Voting.sol';\n\ncontract VotingFactory {\n  struct voting {\n    address creator;\n    address instance;\n    string name;\n    string description;\n    uint timestamp;\n    bool instanceExists;\n    uint start;\n    uint end;\n  }\n  mapping(address => mapping(bytes32 => voting)) public votingContracts;\n  voting[] public allVotings;\n  uint public contractsCreated;\n  event VotingCreated(string _title, address _contract);\n\n  function newVotingInstance(string memory _name, string memory _description, bytes32[] memory proposalNames, uint _startDate, uint _endDate) public returns(address) {\n    require(proposalNames.length > 2, \"\");\n    bytes32 _id = keccak256(abi.encodePacked(msg.sender, _name));\n    require(votingContracts[msg.sender][_id].instanceExists == false, \"There is already a Voting with this name\");\n    Voting newVotingContract = new Voting(msg.sender, proposalNames, _startDate, _endDate);\n    address deployedAddress = address(newVotingContract);\n\n    voting memory newVoting = voting(msg.sender, deployedAddress, _name, _description, block.timestamp, true, _startDate, _endDate);\n    allVotings.push(newVoting);\n\n    votingContracts[msg.sender][_id] = newVoting;\n    contractsCreated++;\n    emit VotingCreated(_name, deployedAddress);\n    return deployedAddress;\n  }\n  \n}\n",
  "sourcePath": "/home/anja/mémoire/voting/contracts/VotingFactory.sol",
  "compiler": {
    "name": "solc",
    "version": "0.5.16+commit.9c3226ce.Emscripten.clang"
  },
  "schemaVersion": "3.0.23",
  "updatedAt": "2020-03-01T14:54:54.105Z",
  "networkType": "ethereum",
  "devdoc": {
    "methods": {}
  },
  "userdoc": {
    "methods": {}
  }
}