{
  "contractName": "Voting",
  "abi": [
    {
      "inputs": [
        {
          "internalType": "address",
          "name": "_creator",
          "type": "address"
        },
        {
          "internalType": "bytes32[]",
          "name": "proposalNames",
          "type": "bytes32[]"
        },
        {
          "internalType": "uint256",
          "name": "_start",
          "type": "uint256"
        },
        {
          "internalType": "uint256",
          "name": "_end",
          "type": "uint256"
        }
      ],
      "payable": false,
      "stateMutability": "nonpayable",
      "type": "constructor"
    },
    {
      "constant": true,
      "inputs": [],
      "name": "chairperson",
      "outputs": [
        {
          "internalType": "address",
          "name": "",
          "type": "address"
        }
      ],
      "payable": false,
      "stateMutability": "view",
      "type": "function"
    },
    {
      "constant": true,
      "inputs": [],
      "name": "endDate",
      "outputs": [
        {
          "internalType": "uint256",
          "name": "",
          "type": "uint256"
        }
      ],
      "payable": false,
      "stateMutability": "view",
      "type": "function"
    },
    {
      "constant": true,
      "inputs": [],
      "name": "name",
      "outputs": [
        {
          "internalType": "string",
          "name": "",
          "type": "string"
        }
      ],
      "payable": false,
      "stateMutability": "view",
      "type": "function"
    },
    {
      "constant": true,
      "inputs": [
        {
          "internalType": "uint256",
          "name": "",
          "type": "uint256"
        }
      ],
      "name": "proposals",
      "outputs": [
        {
          "internalType": "bytes32",
          "name": "name",
          "type": "bytes32"
        },
        {
          "internalType": "uint256",
          "name": "voteCount",
          "type": "uint256"
        }
      ],
      "payable": false,
      "stateMutability": "view",
      "type": "function"
    },
    {
      "constant": true,
      "inputs": [],
      "name": "startDate",
      "outputs": [
        {
          "internalType": "uint256",
          "name": "",
          "type": "uint256"
        }
      ],
      "payable": false,
      "stateMutability": "view",
      "type": "function"
    },
    {
      "constant": true,
      "inputs": [
        {
          "internalType": "address",
          "name": "",
          "type": "address"
        }
      ],
      "name": "voters",
      "outputs": [
        {
          "internalType": "uint256",
          "name": "weight",
          "type": "uint256"
        },
        {
          "internalType": "bool",
          "name": "voted",
          "type": "bool"
        },
        {
          "internalType": "uint256",
          "name": "vote",
          "type": "uint256"
        }
      ],
      "payable": false,
      "stateMutability": "view",
      "type": "function"
    },
    {
      "constant": true,
      "inputs": [],
      "name": "getProposalsSize",
      "outputs": [
        {
          "internalType": "uint256",
          "name": "",
          "type": "uint256"
        }
      ],
      "payable": false,
      "stateMutability": "view",
      "type": "function"
    },
    {
      "constant": false,
      "inputs": [
        {
          "internalType": "address",
          "name": "voter",
          "type": "address"
        }
      ],
      "name": "giveRightToVote",
      "outputs": [],
      "payable": false,
      "stateMutability": "nonpayable",
      "type": "function"
    },
    {
      "constant": false,
      "inputs": [
        {
          "internalType": "uint256",
          "name": "proposal",
          "type": "uint256"
        }
      ],
      "name": "vote",
      "outputs": [],
      "payable": false,
      "stateMutability": "nonpayable",
      "type": "function"
    },
    {
      "constant": true,
      "inputs": [],
      "name": "winningProposal",
      "outputs": [
        {
          "internalType": "uint256",
          "name": "winningProposal_",
          "type": "uint256"
        }
      ],
      "payable": false,
      "stateMutability": "view",
      "type": "function"
    },
    {
      "constant": true,
      "inputs": [],
      "name": "winnerName",
      "outputs": [
        {
          "internalType": "bytes32",
          "name": "winnerName_",
          "type": "bytes32"
        }
      ],
      "payable": false,
      "stateMutability": "view",
      "type": "function"
    }
  ],
  "bytecode": "0x608060405234801561001057600080fd5b50604051610c25380380610c258339818101604052608081101561003357600080fd5b81019080805190602001909291908051604051939291908464010000000082111561005d57600080fd5b8382019150602082018581111561007357600080fd5b825186602082028301116401000000008211171561009057600080fd5b8083526020830192505050908051906020019060200280838360005b838110156100c75780820151818401526020810190506100ac565b50505050905001604052602001805190602001909291908051906020019092919050505083600360006101000a81548173ffffffffffffffffffffffffffffffffffffffff021916908373ffffffffffffffffffffffffffffffffffffffff160217905550600160046000600360009054906101000a900473ffffffffffffffffffffffffffffffffffffffff1673ffffffffffffffffffffffffffffffffffffffff1673ffffffffffffffffffffffffffffffffffffffff16815260200190815260200160002060000181905550816001819055508060028190555060008090505b835181101561022d57600560405180604001604052808684815181106101cc57fe5b60200260200101518152602001600081525090806001815401808255809150509060018203906000526020600020906002020160009091929091909150600082015181600001556020820151816001015550505080806001019150506101aa565b50505050506109e4806102416000396000f3fe608060405234801561001057600080fd5b50600436106100a95760003560e01c8063609ff1bd11610071578063609ff1bd146102105780639e7b8d611461022e578063a3ec138d14610272578063c24a0f8b146102dc578063cd8a6b4b146102fa578063e2ba53f014610318576100a9565b80630121b93f146100ae578063013cf08b146100dc57806306fdde03146101255780630b97bc86146101a85780632e4176cf146101c6575b600080fd5b6100da600480360360208110156100c457600080fd5b8101908080359060200190929190505050610336565b005b610108600480360360208110156100f257600080fd5b8101908080359060200190929190505050610532565b604051808381526020018281526020019250505060405180910390f35b61012d610563565b6040518080602001828103825283818151815260200191508051906020019080838360005b8381101561016d578082015181840152602081019050610152565b50505050905090810190601f16801561019a5780820380516001836020036101000a031916815260200191505b509250505060405180910390f35b6101b0610601565b6040518082815260200191505060405180910390f35b6101ce610607565b604051808273ffffffffffffffffffffffffffffffffffffffff1673ffffffffffffffffffffffffffffffffffffffff16815260200191505060405180910390f35b61021861062d565b6040518082815260200191505060405180910390f35b6102706004803603602081101561024457600080fd5b81019080803573ffffffffffffffffffffffffffffffffffffffff1690602001909291905050506106a4565b005b6102b46004803603602081101561028857600080fd5b81019080803573ffffffffffffffffffffffffffffffffffffffff169060200190929190505050610910565b6040518084815260200183151515158152602001828152602001935050505060405180910390f35b6102e4610947565b6040518082815260200191505060405180910390f35b61030261094d565b6040518082815260200191505060405180910390f35b61032061095a565b6040518082815260200191505060405180910390f35b6000600460003373ffffffffffffffffffffffffffffffffffffffff1673ffffffffffffffffffffffffffffffffffffffff16815260200190815260200160002090506000816000015414156103f4576040517f08c379a00000000000000000000000000000000000000000000000000000000081526004018080602001828103825260148152602001807f486173206e6f20726967687420746f20766f746500000000000000000000000081525060200191505060405180910390fd5b8060010160009054906101000a900460ff1615610479576040517f08c379a000000000000000000000000000000000000000000000000000000000815260040180806020018281038252600e8152602001807f416c726561647920766f7465642e00000000000000000000000000000000000081525060200191505060405180910390fd5b4260015410801561048b575060025442105b6104d8576040517f08c379a0000000000000000000000000000000000000000000000000000000008152600401808060200182810382526000815260200160200191505060405180910390fd5b60018160010160006101000a81548160ff02191690831515021790555081816002018190555080600001546005838154811061051057fe5b9060005260206000209060020201600101600082825401925050819055505050565b6005818154811061053f57fe5b90600052602060002090600202016000915090508060000154908060010154905082565b60008054600181600116156101000203166002900480601f0160208091040260200160405190810160405280929190818152602001828054600181600116156101000203166002900480156105f95780601f106105ce576101008083540402835291602001916105f9565b820191906000526020600020905b8154815290600101906020018083116105dc57829003601f168201915b505050505081565b60015481565b600360009054906101000a900473ffffffffffffffffffffffffffffffffffffffff1681565b6000806000905060008090505b60058054905081101561069f57816005828154811061065557fe5b9060005260206000209060020201600101541115610692576005818154811061067a57fe5b90600052602060002090600202016001015491508092505b808060010191505061063a565b505090565b600360009054906101000a900473ffffffffffffffffffffffffffffffffffffffff1673ffffffffffffffffffffffffffffffffffffffff163373ffffffffffffffffffffffffffffffffffffffff161461074a576040517f08c379a00000000000000000000000000000000000000000000000000000000081526004018080602001828103825260288152602001806109886028913960400191505060405180910390fd5b600460008273ffffffffffffffffffffffffffffffffffffffff1673ffffffffffffffffffffffffffffffffffffffff16815260200190815260200160002060010160009054906101000a900460ff161561080d576040517f08c379a00000000000000000000000000000000000000000000000000000000081526004018080602001828103825260188152602001807f54686520766f74657220616c726561647920766f7465642e000000000000000081525060200191505060405180910390fd5b6000600460008373ffffffffffffffffffffffffffffffffffffffff1673ffffffffffffffffffffffffffffffffffffffff16815260200190815260200160002060000154146108c5576040517f08c379a000000000000000000000000000000000000000000000000000000000815260040180806020018281038252600a8152602001807f776569676874203e20300000000000000000000000000000000000000000000081525060200191505060405180910390fd5b6001600460008373ffffffffffffffffffffffffffffffffffffffff1673ffffffffffffffffffffffffffffffffffffffff1681526020019081526020016000206000018190555050565b60046020528060005260406000206000915090508060000154908060010160009054906101000a900460ff16908060020154905083565b60025481565b6000600580549050905090565b6000600561096661062d565b8154811061097057fe5b90600052602060002090600202016000015490509056fe4f6e6c79206368616972706572736f6e2063616e206769766520726967687420746f20766f74652ea265627a7a723158200342b1b0b4fe220b987d660fa1a6998d3c760a6022d2e1c80bd54a2e631a9b9364736f6c63430005100032",
  "source": "pragma solidity >=0.4.21 <0.7.0;\n\ncontract Voting {\n    string public name;\n    uint public startDate;\n    uint public endDate;\n\n    // This declares a new complex type which will\n    // be used for variables later.\n    // It will represent a single voter.\n    struct Voter {\n        uint weight; // weight is accumulated by delegation\n        bool voted;  // if true, that person already voted\n        uint vote;   // index of the voted proposal\n    }\n\n    // This is a type for a single proposal.\n    struct Proposal {\n        bytes32 name; // short name (up to 32 bytes)\n        uint256 voteCount; // number of accumulated votes\n    }\n\n    address public chairperson;\n\n    // This declares a state variable that\n    // stores a `Voter` struct for each possible address.\n    mapping(address => Voter) public voters;\n\n    // A dynamically-sized array of `Proposal` structs.\n    Proposal[] public proposals;\n\n    constructor(address _creator, bytes32[] memory proposalNames, uint _start, uint _end) public {\n      chairperson = _creator;\n      voters[chairperson].weight = 1;\n      startDate = _start;\n      endDate = _end;\n\n      // For each of the provided proposal names,\n      // create a new proposal object and add it\n      // to the end of the array.\n      for (uint i = 0; i < proposalNames.length; i++) {\n          // `Proposal({...})` creates a temporary\n          // Proposal object and `proposals.push(...)`\n          // appends it to the end of `proposals`.\n          proposals.push(Proposal({\n              name: proposalNames[i],\n              voteCount: 0\n          }));\n      }\n    }\n\n    function getProposalsSize() public view returns (uint) {\n        return proposals.length;\n    }\n\n    // Give `voter` the right to vote on this ballot.\n    // May only be called by `chairperson`.\n    function giveRightToVote(address voter) public {\n        // If the first argument of `require` evaluates\n        // to `false`, execution terminates and all\n        // changes to the state and to Ether balances\n        // are reverted.\n        // This used to consume all gas in old EVM versions, but\n        // not anymore.\n        // It is often a good idea to use `require` to check if\n        // functions are called correctly.\n        // As a second argument, you can also provide an\n        // explanation about what went wrong.\n        require(\n            msg.sender == chairperson,\n            \"Only chairperson can give right to vote.\"\n        );\n        require(\n            !voters[voter].voted,\n            \"The voter already voted.\"\n        );\n        require(voters[voter].weight == 0, \"weight > 0\");\n        voters[voter].weight = 1;\n    }\n\n    /// Give your vote (including votes delegated to you)\n    /// to proposal `proposals[proposal].name`.\n    function vote(uint proposal) public {\n        Voter storage sender = voters[msg.sender];\n        require(sender.weight != 0, \"Has no right to vote\");\n        require(!sender.voted, \"Already voted.\");\n        require(startDate < block.timestamp && block.timestamp < endDate, \"\");\n\n        sender.voted = true;\n        sender.vote = proposal;\n\n        // If `proposal` is out of the range of the array,\n        // this will throw automatically and revert all\n        // changes.\n        proposals[proposal].voteCount += sender.weight;\n    }\n\n    /// @dev Computes the winning proposal taking all\n    /// previous votes into account.\n    function winningProposal() public view\n            returns (uint winningProposal_)\n    {\n        uint winningVoteCount = 0;\n        for (uint p = 0; p < proposals.length; p++) {\n            if (proposals[p].voteCount > winningVoteCount) {\n                winningVoteCount = proposals[p].voteCount;\n                winningProposal_ = p;\n            }\n        }\n    }\n\n    // Calls winningProposal() function to get the index\n    // of the winner contained in the proposals array and then\n    // returns the name of the winner\n    function winnerName() public view\n            returns (bytes32 winnerName_)\n    {\n        winnerName_ = proposals[winningProposal()].name;\n    }\n}\n",
  "sourcePath": "/home/anja/mémoire/voting/contracts/Voting.sol",
  "compiler": {
    "name": "solc",
    "version": "0.5.16+commit.9c3226ce.Emscripten.clang"
  },
  "schemaVersion": "3.0.23",
  "updatedAt": "2020-09-27T17:16:27.696Z",
  "devdoc": {
    "methods": {
      "winningProposal()": {
        "details": "Computes the winning proposal taking all previous votes into account."
      }
    }
  },
  "userdoc": {
    "methods": {
      "vote(uint256)": {
        "notice": "Give your vote (including votes delegated to you) to proposal `proposals[proposal].name`."
      }
    }
  }
}